:100000000C9434000C943E000C943E000C943E0082
:100010000C943E000C943E000C943E000C943E0068
:100020000C943E000C943E000C943E000C943E0058
:100030000C943E000C943E000C943E000C943E0048
:100040000C943E000C943E000C943E000C943E0038
:100050000C943E000C943E000C943E000C943E0028
:100060000C943E000C943E0011241FBECFEFD8E04C
:10007000DEBFCDBF0E9440000C946B000C940000CA
:100080000E94650040E951E089B199B184FD11C039
:1000900090FD0FC05E9A20E030E0CA010197F1F7B1
:1000A0002F5F3F4F283C3105C1F789B199B184FFDB
:1000B000EFCF5E9820E030E0CA010197F1F72F5FA3
:1000C0003F4F283C3105C1F7DFCF569A54985098DE
:0A00D0005C9A589A0895F894FFCF47
:00000001FF
