:100000000C9434000C9446000C9446000C9446006A
:100010000C9446000C9446000C9446000C94460048
:100020000C9446000C9446000C9446000C94460038
:100030000C9446000C9446000C9446000C94460028
:100040000C9446000C9446000C9446000C94460018
:100050000C9446000C9446000C9446000C94460008
:100060000C9446000C94460011241FBECFEFD8E03C
:10007000DEBFCDBF11E0A0E0B1E001C01D92A23013
:10008000B107E1F70E947A000C94CC000C940000B8
:1000900084B5836884BD85B5836085BD569A08950F
:1000A000279A52985A9A089580E480937C0087E8B2
:1000B00080937A00089590917C00987F90937C00C3
:1000C00090917C008770892B80937C0080917A00CE
:1000D000806480937A0080917A0084FFFCCF8091C5
:1000E0007A00806180937A002091780030917900C5
:1000F000C9010895EF92FF920F931F93CF93DF935F
:100100000E9450000E9454000E944800C0E9D1E0C3
:100110001AEF04EB9EE6F92E8CE3E82E4A9B0EC004
:100120002F9817BC20E030E0CE010197F1F72F5F48
:100130003F4F283C3105C1F74A99F2CF2F9A80E012
:100140000E945B0020E030E0FE013197F1F72F5F65
:100150003F4F283C3105C1F7893C910580F4E7BC4D
:10016000109201011092000120E030E0CE010197D1
:10017000F1F72F5F3F4F283C3105C1F7D3CF21E086
:10018000853F920710F4F7BCEBCF8D5B924010F4E3
:0C01900007BDE6CF17BDE4CFF894FFCF09
:00000001FF
