:100000000C9434000C943E000C943E000C943E0082
:100010000C943E000C943E000C943E000C943E0068
:100020000C943E000C943E000C943E000C943E0058
:100030000C943E000C943E000C943E000C943E0048
:100040000C943E000C943E000C943E000C943E0038
:100050000C943E000C943E000C943E000C943E0028
:100060000C943E000C943E0011241FBECFEFD8E04C
:10007000DEBFCDBF0E94A2000C9457010C9400007B
:100080009C0122953295307F3227207F32274427EA
:1000900037FD4095542F60E074E284EF90E00E94B9
:1000A0001A01215030402093C4003093C50083E4EE
:1000B0008093C20088ED8093C10008958091C000B4
:1000C00087FFFCCF8091C6000895982F8091C000D3
:1000D00085FFFCCF9093C600089584B5836884BDE6
:1000E00085B5836085BD569A089584B18FEF84B934
:1000F000559A52985A9A089580E480937C0087E834
:1001000080937A00089590917C00987F90937C0072
:1001100090917C008770892B80937C0080917A007D
:10012000806480937A0080917A0084FFFCCF809174
:100130007A00806180937A00209178003091790074
:10014000C9010895DF92EF92FF920F931F93CF930F
:10015000DF930E9475000E947C000E946D0080E881
:1001600095E20E944000C0E9D1E00AEFEEEBFE2EDE
:100170007EE6E72E6CE3D62E4A9B14C05D9817BC32
:1001800040E010E0842F0E94650015B920E030E0C7
:10019000CE010197F1F72F5F3F4F283C3105C1F7A2
:1001A0004A99ECCF5D9A80E00E94830020E030E025
:1001B000FE013197F1F72F5F3F4F283C3105C1F722
:1001C000893C9105D8F4D7BC44E120E030E0CE0171
:1001D0000197F1F72F5F3F4F283C3105C1F7842F7E
:1001E0006AE00E940E0190E09C01220F331F280F4D
:1001F000391F220F331F142F120FC4CF21E0853F68
:10020000920718F4E7BC49E1E0CF8D5B924018F407
:10021000F7BC4DE1DACF07BD41E2D7CF991B79E0BA
:1002200004C0991F961708F0961B881F7A95C9F786
:100230008095089597FB092E05260ED057FD04D012
:1002400014D00AD0001C38F4509540953095219573
:100250003F4F4F4F5F4F0895F6F7909580957095FB
:1002600061957F4F8F4F9F4F0895A1E21A2EAA1BD1
:10027000BB1BFD010DC0AA1FBB1FEE1FFF1FA21756
:10028000B307E407F50720F0A21BB30BE40BF50B53
:10029000661F771F881F991F1A9469F760957095DC
:1002A000809590959B01AC01BD01CF010895F89414
:0202B000FFCF7E
:00000001FF
